{
  "_format": "hh-sol-artifact-1",
  "contractName": "Deposit",
  "sourceName": "contracts/Deposit.sol",
  "abi": [
    {
      "inputs": [],
      "stateMutability": "nonpayable",
      "type": "constructor"
    },
    {
      "inputs": [],
      "name": "deposit",
      "outputs": [],
      "stateMutability": "payable",
      "type": "function"
    },
    {
      "inputs": [],
      "name": "getAllDepositor",
      "outputs": [
        {
          "internalType": "address[]",
          "name": "",
          "type": "address[]"
        }
      ],
      "stateMutability": "view",
      "type": "function"
    },
    {
      "inputs": [],
      "name": "getBalance",
      "outputs": [
        {
          "internalType": "uint256",
          "name": "",
          "type": "uint256"
        }
      ],
      "stateMutability": "view",
      "type": "function"
    },
    {
      "inputs": [],
      "name": "getDepositSum",
      "outputs": [
        {
          "internalType": "uint256",
          "name": "",
          "type": "uint256"
        }
      ],
      "stateMutability": "view",
      "type": "function"
    },
    {
      "inputs": [
        {
          "internalType": "address payable",
          "name": "_someAddress",
          "type": "address"
        },
        {
          "internalType": "uint256",
          "name": "_amount",
          "type": "uint256"
        }
      ],
      "name": "withdraw",
      "outputs": [],
      "stateMutability": "payable",
      "type": "function"
    }
  ],
  "bytecode": "0x608060405234801561001057600080fd5b50336000806101000a81548173ffffffffffffffffffffffffffffffffffffffff021916908373ffffffffffffffffffffffffffffffffffffffff1602179055506108c2806100606000396000f3fe60806040526004361061004a5760003560e01c80630ec1faa81461004f57806312065fe01461007a5780634cdd02f5146100a5578063d0e30db0146100d0578063f3fef3a3146100da575b600080fd5b34801561005b57600080fd5b506100646100f6565b6040516100719190610629565b60405180910390f35b34801561008657600080fd5b5061008f610184565b60405161009c91906106ab565b60405180910390f35b3480156100b157600080fd5b506100ba61021b565b6040516100c791906106ab565b60405180910390f35b6100d8610262565b005b6100f460048036038101906100ef91906104f0565b6103aa565b005b6060600180548060200260200160405190810160405280929190818152602001828054801561017a57602002820191906000526020600020905b8160009054906101000a900473ffffffffffffffffffffffffffffffffffffffff1673ffffffffffffffffffffffffffffffffffffffff1681526020019060010190808311610130575b5050505050905090565b60008060009054906101000a900473ffffffffffffffffffffffffffffffffffffffff1673ffffffffffffffffffffffffffffffffffffffff163373ffffffffffffffffffffffffffffffffffffffff1614610215576040517f08c379a000000000000000000000000000000000000000000000000000000000815260040161020c9061064b565b60405180910390fd5b47905090565b6000600260003373ffffffffffffffffffffffffffffffffffffffff1673ffffffffffffffffffffffffffffffffffffffff16815260200190815260200160002054905090565b60003414156102a6576040517f08c379a000000000000000000000000000000000000000000000000000000000815260040161029d9061068b565b60405180910390fd5b6000600260003373ffffffffffffffffffffffffffffffffffffffff1673ffffffffffffffffffffffffffffffffffffffff168152602001908152602001600020541415610352576001339080600181540180825580915050600190039060005260206000200160009091909190916101000a81548173ffffffffffffffffffffffffffffffffffffffff021916908373ffffffffffffffffffffffffffffffffffffffff1602179055505b34600260003373ffffffffffffffffffffffffffffffffffffffff1673ffffffffffffffffffffffffffffffffffffffff16815260200190815260200160002060008282546103a19190610710565b92505081905550565b60008054906101000a900473ffffffffffffffffffffffffffffffffffffffff1673ffffffffffffffffffffffffffffffffffffffff163373ffffffffffffffffffffffffffffffffffffffff1614610438576040517f08c379a000000000000000000000000000000000000000000000000000000000815260040161042f9061064b565b60405180910390fd5b4781111561047b576040517f08c379a00000000000000000000000000000000000000000000000000000000081526004016104729061066b565b60405180910390fd5b8173ffffffffffffffffffffffffffffffffffffffff166108fc829081150290604051600060405180830381858888f193505050501580156104c1573d6000803e3d6000fd5b505050565b6000813590506104d58161085e565b92915050565b6000813590506104ea81610875565b92915050565b6000806040838503121561050357600080fd5b6000610511858286016104c6565b9250506020610522858286016104db565b9150509250929050565b60006105388383610544565b60208301905092915050565b61054d81610766565b82525050565b600061055e826106d6565b61056881856106ee565b9350610573836106c6565b8060005b838110156105a457815161058b888261052c565b9750610596836106e1565b925050600181019050610577565b5085935050505092915050565b60006105be6009836106ff565b91506105c9826107e3565b602082019050919050565b60006105e16018836106ff565b91506105ec8261080c565b602082019050919050565b6000610604600a836106ff565b915061060f82610835565b602082019050919050565b610623816107aa565b82525050565b600060208201905081810360008301526106438184610553565b905092915050565b60006020820190508181036000830152610664816105b1565b9050919050565b60006020820190508181036000830152610684816105d4565b9050919050565b600060208201905081810360008301526106a4816105f7565b9050919050565b60006020820190506106c0600083018461061a565b92915050565b6000819050602082019050919050565b600081519050919050565b6000602082019050919050565b600082825260208201905092915050565b600082825260208201905092915050565b600061071b826107aa565b9150610726836107aa565b9250827fffffffffffffffffffffffffffffffffffffffffffffffffffffffffffffffff0382111561075b5761075a6107b4565b5b828201905092915050565b60006107718261078a565b9050919050565b60006107838261078a565b9050919050565b600073ffffffffffffffffffffffffffffffffffffffff82169050919050565b6000819050919050565b7f4e487b7100000000000000000000000000000000000000000000000000000000600052601160045260246000fd5b7f4e6f74206f776e65720000000000000000000000000000000000000000000000600082015250565b7f416d6f756e74206d6f7265207468616e2062616c616e63650000000000000000600082015250565b7f56616c7565206973203000000000000000000000000000000000000000000000600082015250565b61086781610778565b811461087257600080fd5b50565b61087e816107aa565b811461088957600080fd5b5056fea264697066735822122012d7c7cf19db29ea75f1a0ff0a9514032d836f1647018f813ef6ee136d3e30f364736f6c63430008010033",
  "linkReferences": {},
  "deployedLinkReferences": {}
}